:03000000020100FA
:09000B00758AB2758C3C020200FA
:10020000D8507828B90108E57154F0C4FD801CB9B4
:100210000207E571540FFD8012B90308E57054F030
:10022000C4FD8007E570540FFD800074893187316B
:10023000B5EDC4F590C4F5B090031093319631B587
:1002400074C9318731B57B04EDC4FC5153D90379AE
:10025000043232ECC333FCE492E0900320933196F5
:0502600031B5DBEF22C7
:100100007570127571A075A000759000790431B5F5
:1001100031B53138314A31B531B531B574823187B5
:1001200031B590030031A731B574C2318731B59034
:10013000030831A731B580FE758901758C3C758A3D
:10014000B0D2AFD2A97828D28C2275A038C280C292
:1001500081D28231B5C28231B575A00CC280C28114
:10016000D28231B5C28231B575A001C280C281D2BE
:100170008231B5C28231B575A006C280C281D282F9
:1001800031B5C28231B522F5A0C280C281D282319E
:10019000B5C28231B522F5A0D280C281D28231B5FA
:1001A000C28231B531B522C0E0E49360053196A337
:1001B00080F7D0E022C000C001780179FFD9FED8D5
:0601C000FAD001D000227C
:100300004C6576656C20200056616C75653A20005E
:10031000303132333435363738394142434445463B
:0203200030317A
:00000001FF
