:03000000020100FA
:03000B0002016B84
:100100007570747571FB7572E07573B1E570540F9D
:10011000FAE570C4540FFBE571540FFCE571C4544B
:100120000FFDD2AFD2A985738C85728A7589017E45
:1001300064D28C12028FD261C262C263C2641202A4
:10014000FA1202FA1202FA74841202CC1202FA9023
:10015000030B1202EC1202FA74C21202CC1202FA5F
:1001600090032B1202EC1202FA80FE85738C8572CA
:100170008ADE0E2061152062092063092064097E51
:10018000643202022002024502026AEAF5B0C2614C
:10019000D26274841202CC1202FA90030B1202ECA7
:1001A0001202FA74C91202CC1202FA8AF00201B0E9
:1001B00020F30E30F30074301202DB1202FA020157
:1001C000CC74311202DB1202FA0201CC20F20E30A2
:1001D000F20074301202DB1202FA0201E8743112EA
:1001E00002DB1202FA0201E820F10E30F100743055
:1001F0001202DB1202FA02020474311202DB120252
:10020000FA02020420F00E30F00074301202DB1209
:1002100002FA02017F74311202DB1202FA02017F3C
:10022000EBF5B0C262D26374841202CC1202FA906F
:1002300003131202EC1202FA74C91202CC1202FA6F
:100240008BF00201B0ECF5B0C263D2647484120288
:10025000CC1202FA90031B1202EC1202FA74C912B9
:1002600002CC1202FA8CF00201B0EDF5B0C264D2F9
:060270006174841202CC4F
:100276001202FA9003231202EC1202FA74C9120255
:10028600CC1202FA8DF00201B075A038C280C2818C
:10029600D28251FAC28251FA75A00CC280C281D2B2
:1002A6008251FAC28251FA75A001C280C281D282FD
:1002B60051FAC28251FA75A006C280C281D2825119
:1002C600FAC28251FA22F5A0C280C281D28251FAC4
:1002D600C28251FA22F5A0D280C281D28251FAC2DC
:1002E6008251FA51FA22C0E0E493600551DBA38003
:1002F600F7D0E022C000C001780179FFD9FED8FA14
:10030600D001D000224C6576656C2031004C6576B4
:10031600656C2032004C6576656C2033004C657642
:0D032600656C20340056616C75653A20004E
:00000001FF
