:03000000020800F3
:0C080000787FE4F6D8FD75810A020847F5
:0708F100010A800208006407
:03000B000208B434
:1008B400C28DC28CB280309408758CEF758AB98071
:0A08C40006758CF1758A88D28C321B
:03001B0002088C4C
:10088C00C0E0C28FC28E758D63758BC0D28EE509A8
:10089C0045087009B294F5087509648008E50915D6
:0808AC000970021508D0E032CA
:1008CE00758911D2A9D2AB758CEF758D63758AB906
:0A08DE00758BC0D2AFD28CD28E22EF
:0908E8001208CED294D28080FEE9
:10080C000208E8E493A3F8E493A34003F68001F212
:10081C0008DFF48029E493A3F85407240CC8C333ED
:10082C00C4540F4420C8834004F456800146F6DFBC
:10083C00E4800B01020408102040809008F1E47E53
:10084C00019360BCA3FF543F30E509541FFEE493B1
:10085C00A360010ECF54C025E060A840B8E493A378
:10086C00FAE493A3F8E493A3C8C582C8CAC583CAA3
:10087C00F0A3C8C582C8CAC583CADFE9DEE780BE5B
:0108F80000FF
:00000001FF
