:03000000020E519C
:0C0E5100787FE4F6D8FD75816E020E98E3
:101075002A2A2A2A2A2A2A2A002020256400202012
:101085004C3A202020200020204C3A2564004E6553
:09109500772047616D650D0A002A
:100FD800C10AC109102271776572747975696173E4
:100FE800646667686A6B025D00000243000010498E
:100FF80031323334353637383132333435363738A1
:1010080002470004025B0004C10B025903E80245D1
:041018000000C18C87
:100F4A00E4F5A0C282C280C2817F38FE1211317FCD
:100F5A00047E001210557F067E001211317F047E36
:100F6A00001210557F0C7E001211317F047E001290
:100F7A0010557F017E001211317F047E0012105538
:070F8A007F807E000211319F
:0A104B00C281D2828FA07F0A7E00CE
:10105500E4FDFCC3ED9FEC9E5015E4FBFA0BBB00D1
:0F106500010ABA01F8BB7EF50DBD00010C80E455
:011074002259
:08113100C28012104BC28222A1
:08113900D28012104BC2822289
:09101D001211317BFF7A10797584
:101026008B0B8A0C890DAB0BAA0CA90D120DC36094
:1010360013050DE50D7002050C14F9120DC3FF1210
:05104600113980E222D7
:10110500758920758DCC759850D28ED2ACD2AFC270
:02111500AB220B
:081141008F99300AFDC20A2259
:1010C5008B098A0A890BAB09AA0AA90B120DC36001
:1010D50013050BE50B7002050A14F9120DC3FF1277
:0510E500114180E22230
:09112700E4FF3009FDC209AF9993
:01113000229C
:03002300021117B0
:10111700309905C299D20A32309804C298D209325E
:1010EA00E4F55DF55E745F255EF87631055EE55ED2
:0B10FA007002055D6410455D70EB2284
:100EDD007F807E0012101D750EFF750F1075107E30
:100EED008545118546127B007A00793212085C7BAC
:100EFD00007A0079321210261210517FC012101D87
:100F0D00E55AB4E810E559B4030B750EFF750F10D3
:100F1D00751083800F750EFF750F1075108C855928
:100F2D0011855A127B007A00793A12085C7B007A9F
:0D0F3D0000793A1210267F647E00021055E4
:100D06008E098F0A745F2FF8E664316003020DC204
:100D1600C3E50A9408E5099400E50A500424808096
:100D26000224B8FFE43509FE1211317449250AF888
:100D3600E6FF1211397F887E001211310546E5461D
:100D460070020545750EFF750F1075107E854511ED
:100D5600F5127B007A00793212085C7B007A007902
:100D660032121026300C12AF0A74492FF8E6F542FB
:100D7600C20C745F2FF8763022AF0A74492FF8E65A
:100D8600B54209745F2FF87630D20C22C20C745F1C
:100D9600250AF876317FB87E0B121055C3E50A9402
:100DA60008E5099400E50A50042480800224B8FF6F
:0D0DB600E43509FE1211317F2A1211392295
:0D0F9100E548255CFFEF540F2449F8763247
:100F9E00E4FCFFFEE55C5401FDE55C54087803CEED
:100FAE00C313CE13D8F9FFEC6EFCED6FFDE55BC3FA
:100FBE0013F55BE55C13F55CAE04ED7803C333CE3D
:090FCE0033CED8F9425CEE425B1F
:010FD70022F7
:100B5C00E4FBFA74492548F87631120F9EE54825D6
:100B6C005CFFEF540F2449F87631120F9E120F914F
:100B7C00120F91E548255CFFEF540F2449F87633AA
:100B8C00120F9EE548255CFFEF540F2449F876338D
:100B9C00120F9EE548255CFFEF540F2449F876347C
:100BAC00120F9EE548255CFFEF540F2449F876346C
:100BBC00120F9EE548255CFFEF540F2449F876355B
:100BCC00120F9EE548255CFFEF540F2449F876354B
:100BDC00120F9EE548255CFFEF540F2449F876363A
:100BEC00120F9EE548255CFFEF540F2449F876362A
:100BFC00120F9EE548255CFFEF540F2449F8763719
:100C0C00120F9EE548255CFFEF540F2449F8763708
:100C1C00120F9EE548255CFFEF540F2449F87638F7
:100C2C00AA5BAB5C120F9EE548255CFFEF540F24CA
:080C3C0049F876388A478B481D
:010C4400228D
:100C4500E4F508C20BE4F545F5461210EA120F4A21
:100C5500121105E4F543F544120EDD7BFF7A107998
:100C6500931210C5120B5C200BD91211278F08E4C3
:100C7500F543F544F55DF55E7422255EF8E6B508A5
:100C850011AF5EAE5D120D067422255EF8E6FF1209
:100C95001141745F255EF8E6B430080544E54470FB
:100CA500020543055EE55E7002055DC39410E55DD2
:100CB500940040C4E54464104543703BD20BC3E542
:100CC50046955AE5459559502E85455985465A7F8D
:100CD500C87E00121131750EFF750F1075108C85C9
:100CE5005911855A127B007A00793A12085C7B000B
:100CF5007A00793A1210267F647E00121055020C94
:010D05006C81
:100E5D00020C45E493A3F8E493A34003F68001F25A
:100E6D0008DFF48029E493A3F85407240CC8C33396
:100E7D00C4540F4420C8834004F456800146F6DF65
:100E8D00E4800B0102040810204080900FD8E47E0E
:100E9D00019360BCA3FF543F30E509541FFEE4935A
:100EAD00A360010ECF54C025E060A840B8E493A321
:100EBD00FAE493A3F8E493A3C8C582C8CAC583CA4C
:100ECD00F0A3C8C582C8CAC583CADFE9DEE780BE04
:01101C0000D3
:100DC300BB010689828A83E0225002E722BBFE022E
:090DD300E32289828A83E4932261
:10080000E51A240EF8E6051A22780B300702780E56
:10081000E475F001120E1B020DC32000EB7F2ED2F7
:10082000008018EF540F2490D43440D4FF30040BD0
:10083000EF24BFB41A0050032461FFE51B600215CA
:100840001B051EE51E7002051D30070D780BE475B3
:10085000F001120E1BEF020E0902109E7403D20764
:100860008003E4C207F51A8B0B8A0C890DE4F51B93
:10087000F51DF51EE51B60077F2012083B80F5750E
:100880001CFFC201C200C202C203C205C206C208E6
:10089000120809FF700D3007057F0012084CAF1ECB
:1008A000AE1D22B4255FC2D5C204120809FF24D0B0
:1008B000B40A00501A75F00A781B30D50508B6FF47
:1008C0000106C6A426F620D5047002D20380D924DE
:1008D000CFB41A00EF5004C2E5D204020A4CD20190
:1008E00080C6D20080C0D20280BCD2D580BAD205E8
:1008F00080B47F2012083B2002077401B51B004022
:10090000F1120800FF12083B020874D208D20680D8
:1009100095120800FB120800FA120800F94A4B7001
:1009200006791D7A0B7BFF20022EE51B602A7E00D4
:100930008E82758300120DDC60060EEE651C70F071
:10094000C2D5EBC0E0EAC0E0E9C0E0EE120A93D005
:10095000E0F9D0E0FAD0E0FB120DC3FF60AAEBC0D3
:10096000E0EAC0E0E9C0E012083BD0E02401F9D0A1
:10097000E03400FAD0E0FBE51C0460DCD51CD98033
:10098000877BFF7A0A798FD202809C791080027966
:1009900008C206C2088008D2D5790A8004790AC242
:1009A000D5E51C047002F51CE4FAFDFEFF120800F8
:1009B000FC7B08200113120800FD7B1030000A1296
:1009C0000800FE120800FF7B20EC3382D592D55040
:1009D00013C3E43000069FFFE49EFEE42001039D64
:1009E000FDE49CFCE4CBF8C201EC700CCFCECDCC86
:1009F000E824F8F870F38017C3EF33FFEE33FEED11
:100A000033FDEC33FCEB33FB994002FB0FD8E9EBF1
:100A1000300105F8D0E0C448B201C0E00AEC4D4E08
:100A20004F78207B0070C2EAB51C0040BCC0E012C9
:100A30000A95D0F0D0E0200104C4C0E0C4B201C0E7
:100A4000F0120824D0F0D5F0EB020874120E2B0936
:100A50001153098B5808E24C08DE42098F4F099761
:0F0A60004409974908F743099D550981460981C3
:100A6F00450981470B3D5008E62D08EA2E090D2B4D
:100A7F0008EE23090B200B262A08A64800000905BB
:100A8F003F3F3F00790AA2D5200314300509B91062
:100A9F00020404B9080104A2D52006025001042063
:100AAF0002689202B51B005034C0E07F203003195A
:100ABF007F30A20272067205500F120AECC202C2F8
:100ACF0006C205C2087F30800F300503E9C0E0126F
:100ADF00083B300503D0E0F9D0E0B51BCC3005174B
:100AEF007F30B9100C12083B7F583004077F788095
:100AFF0003B9080312083B3002057F2D02083B7F24
:100B0F00202008F87F2B2006F322920280CF286E38
:100B1F00756C6C2900D2011208003001F8C20178FF
:100B2F001B30D50108F60208A62D5043495812086C
:100B3F00002403B405004001E4900B389312082CF5
:0D0B4F00743A12082CD203751B0402098BA6
:100DDC00BB010CE58229F582E5833AF583E02250CC
:100DEC0006E92582F8E622BBFE06E92582F8E22216
:0D0DFC00E58229F582E5833AF583E4932230
:100E0900BB010689828A83F0225002F722BBFE01C8
:020E1900F322C2
:100E1B00FAE6FB0808E6F925F0F618E6CA3AF622D8
:100E2B00D083D082F8E4937012740193700DA3A356
:100E3B0093F8740193F5828883E47374029368606A
:060E4B00EFA3A3A380DF6A
:10109E00EFB40A07740D1210A9740A309811A899AA
:1010AE00B8130CC2983098FDA899C298B811F630B2
:0710BE0099FDC299F599228A
:00000001FF
