:03000000020CBD32
:0C0CBD00787FE4F6D8FD75813A020D0442
:100EB600566F6C742E3A2000206D560054656D7086
:040EC6002E3A2000A0
:100EA000C1000608000000000000090E0000002E2E
:050EB0000020DF4300FB
:100E0A00E4F5A0C282C280C2817F38FE120ECA12E5
:100E1A000E667F067E00120ECA120E667F0C7E00D8
:100E2A00120ECA120E667F017E00120ECA120E66DA
:070E3A007F807E00020ECA5A
:040E66007F047E0087
:100E6A00E4FDFCC3ED9FEC9E5015E4FBFA0BBB00BE
:0F0E7A00010ABA01F8BB7EF50DBD00010C80E442
:010E89002246
:100C17008E2B8F2C8B2D8A2E892F7C277D10120AE5
:100C2700B2EF2430120A7EAE2BAF2C7C277D101238
:100C37000AB27E037FE8CFCDCFCECCCE120AB2EF79
:100C47002430AB2DAA2EA92F900001120A90AE2BAB
:100C5700AF2C7C037DE8120AB27E007F64CFCDCF34
:100C6700CECCCE120AB2EF2430AB2DAA2EA92F90EC
:100C77000002120A90AE2BAF2C7C007D64120AB2E0
:100C87007E007F0ACFCDCFCECCCE120AB2EF243072
:100C9700AB2DAA2EA92F900003120A90AE2BAF2CD2
:100CA7007C007D0A120AB2ED2430AB2DAA2EA92FA3
:060CB700900004020A9007
:100ECA00C280C281D2828FA07F0A7E00120E6AC2BD
:020EDA00822272
:100EDC00D280C281D2828FA07F0A7E00120E6AC29B
:020EEC00822260
:100E41008B2B8A2C892DAB2BAA2CA92D120A65601C
:100E510013052DE52D7002052C14F9120A65FF12F8
:050E61000EDC80E2221E
:0C0EEE0075C33343B104D2AF43C34022AC
:080DAE008F3A8E398D388C3725
:100DB600C2007810120B15E48FC53000FDA917C2CA
:100DC60000AF3AAE39AD38AC377808120B158FC57F
:100DD6003000FDAB17C200E53AFF8FC53000FDAD10
:100DE60017EB7B00FA7E00E97810C333CE33CED8FA
:100DF600F92BFFEE3AFE7C00EF2DFFEC3EFE33951D
:030E0600E0FDFC10
:010E090022C6
:03004B00020E8A18
:100E8A00C0E0C0D0E5C454F02480700585C517D2EF
:060E9A0000D0D0D0E032D0
:030EFA00D294226D
:020D4900AB07F6
:100D4B00E4F532F531753001F52FEF75F010A47E17
:100D5B00005470FFEE3395E0FDFCEF4480FFED781F
:100D6B0008120B288F368E358D348C33E5322536B1
:100D7B00FFE5313535FEE5303534FDE52F3533FCF8
:100D8B00C294120DAE8F2E8E2D8D2C8C2BD294E502
:100D9B002EF52EE52D5403F52DE4F52CF52BAE2D6C
:020DAB00AF2E69
:010DAD002223
:100B3B00E4F521F522F523F524120EEE120EFA122E
:020B4B000E0A90
:100B4D00E4F52AF5297528F0752741FF120D498E18
:100B5D00258F26AC25AD26E41209AB7B827A7379FD
:100B6D004E78401208001209E48E238F247F807E78
:100B7D0000120ECA7BFF7A0E79B6120E417B007AF7
:100B8D00007908AF24AE23120C177B007A00790888
:100B9D00120E417BFF7A0E79BE120E417F07120DA8
:100BAD00498E258F26AC25AD26E41209AB7B0C7A38
:100BBD0098794678401209098F2A8E298D288C271D
:100BCD00E4FFFE7D207C41AB2AAA29A928A8271283
:100BDD0008001209E48E258F267B007A0079081211
:100BED000C177FC07E00120ECA7BFF7A0E79C212DF
:100BFD000E4185090E850A0F850B10850C127B00A1
:070C0D007A00790E120E417E
:030C1400020B4D83
:10080000EC4D6011E8497017ED33EC3304600DE4F2
:10081000FCFFFEFD22E933E8330470F8020A5012AF
:100820000A1B58046009E4CC2481500628500902B0
:100830000A5A284003020A57C0E0EB4A7044B980C4
:1008400006D0E0FB020A46EF4E701CBD8008EBFFAD
:10085000EAFEE9FD80EBE98DF0A4FEE5F00208E98F
:10086000E9CDF9EAFEEBFFEF89F0A4FCE5F0CE89D3
:10087000F0A42EFFE435F0CD89F0A42DFEE435F090
:100880008067EF4E7005BD80D780C3EF8BF0A4ACBE
:10089000F0EE8BF0A42CFCE435F0F8EF8AF0A42CF9
:1008A000E5F038FCE433CB8DF0A42CFCE5F03BF80C
:1008B000EE8AF0A42CFCE5F038F8E433CF89F0A4FC
:1008C0002CFCE5F038CF3400CE89F0A42FFFE5F002
:1008D0003EFEE433C98DF0A42EFEE5F039CD8AF05A
:1008E000A42FFFE5F03EFEE43DFD33D0E0FB5007D2
:1008F0000BBB000F020A5AEC2CFCEF33FFEE33FE69
:06090000ED33FD020A3296
:10090600020A5AEC5D046005E859047003020A50B5
:10091600120A1B580460F6EC4860F2EC7004FDFE07
:10092600FF22C860DB2481C85009C39860025006C4
:10093600020A579850CAF582E9294B4A7005AB82DC
:10094600020A4675F0007C1A7880C3EF9BEE9AED9A
:1009560099400DC3EF9BFFEE9AFEED99FDE842F03C
:10096600DC23ACF0D0E0FFD0E0FED0E0FDAB82208F
:10097600E7101BEB60BAEC2CFCEF33FFEE33FEED19
:1009860033FD020A32E803F830E705C0F075F000DF
:10099600EF2FFFEE33FEED33FD40B830E7C280AAFD
:1009A60075F020800E75F010800575F0087D007ECC
:1009B600007F003392D530D503120B07EC3340107D
:1009C600EF33FFEE33FEED33FDEC33FCD5F0ED22D5
:0E09D600E5F0247EA2D513CC92E7CDCEFF2211
:1009E400EDD2E7CD33EC3392D524814006E4FFFE0B
:1009F400FDFC22FCE4CFCECDCC24E0501174FF806A
:100A0400EDC3CC13CCCD13CDCE13CECF13CF047006
:070A1400F030D5DE020B07F4
:100A1B00E9D2E7C933E833F892D5EDD2E7CD33EC21
:070A2B0033FC5002B2D5229A
:100A3200EC30E7100FBF000C0EBE00080DBD000425
:100A42000BEB6014A2D5EB13FCED92E7FD2274FFD1
:100A5200FCFDFEFF22E480F8A2D574FF13FC7D802A
:030A6200E480EF3E
:100CC900020B3BE493A3F8E493A34003F68001F2FB
:100CD90008DFF48029E493A3F85407240CC8C3332C
:100CE900C4540F4420C8834004F456800146F6DFFB
:100CF900E4800B0102040810204080900EA0E47EDD
:100D0900019360BCA3FF543F30E509541FFEE493EF
:100D1900A360010ECF54C025E060A840B8E493A3B6
:100D2900FAE493A3F8E493A3C8C582C8CAC583CAE1
:100D3900F0A3C8C582C8CAC583CADFE9DEE780BE99
:010EB500003C
:100A6500BB010689828A83E0225002E722BBFE028F
:090A7500E32289828A83E49322C2
:100A7E00BB010689828A83F0225002F722BBFE0157
:020A8E00F32251
:100A9000F8BB010DE58229F582E5833AF583E8F09C
:100AA000225006E92582C8F622BBFE05E92582C848
:020AB000F22230
:100AB200BC000BBE0029EF8DF084FFADF022E4CC28
:100AC200F875F008EF2FFFEE33FEEC33FCEE9DECF1
:100AD200984005FCEE9DFE0FD5F0E9E4CEFD22ED37
:100AE200F8F5F0EE8420D21CFEADF075F008EF2F81
:100AF200FFED33FD4007985006D5F0F222C398FD72
:050B02000FD5F0EA220E
:0E0B0700C3E49FFFE49EFEE49DFDE49CFC22FF
:100B1500E8600FECC313FCED13FDEE13FEEF13FFBE
:030B2500D8F122E2
:100B2800E8600FEFC333FFEE33FEED33FDEC33FC2B
:030B3800D8F122CF
:00000001FF
