:03000000020DA648
:0C0DA600787FE4F6D8FD75814C020DED5D
:100E3200202020546F67676C652053573120202093
:100E420000207768656E204C454420676C6F77738D
:100E5200200020205265616374696F6E2054696DB1
:100E6200652000436F756E742069732025322E321F
:100E720062582025322E32625825322E326258684C
:060E820000494954420042
:070FCE00010A800208000087
:03000B00020E885A
:100E8800C0E0C0F0C083C082C0D075D000C000C030
:100E980001C002C003C004C005C006C0070509E5BB
:100EA8000970020508120F92D007D006D005D004A9
:100EB800D003D002D001D000D0D0D082D083D0F0DF
:030EC800D0E03245
:070EF600120F6B7F047E0068
:100EFD00E4FDFCC3ED9FEC9E5015E4FBFA0BBB002B
:0F0F0D00010ABA01F8BB3EF50DBD00010C80E4EE
:010F1C0022B2
:090F62007F0A7E00120EFD7FC023
:100F6B00C280C281D2828FA07F0A7E00120EFDC288
:020F7B008222D0
:100FA600D280C281D2828FA07F0A7E00120EFDC23D
:020FB600822295
:060ECB007B007A0079278C
:100ED1008B398A3A893BAB39AA3AA93B120C526049
:100EE10013053BE53B7002053A14F9120C52FF124F
:050EF1000FA680E222C3
:100F4400C0D075D0187F387E00120EF67F06120EC0
:0E0F5400F67F0C120EF67F01120EF6D0D022A0
:0A0FC400E4F5A0C282C280C28122BF
:100CE00078227C007D007BFF7A0E79837E007F0571
:100CF000120C2CE4F537F538120FC4120F44120F02
:100D0000B8120F7D7F807E00120F6B753CFF753D22
:100D10000E753E327B007A00792712085C120ECBEA
:100D2000120F62753CFF753D0E753E437B007A00E5
:100D3000792712085C120ECB7FD07E07120EFDA21F
:100D4000909284120F7DE4F508F509D294A29030B8
:100D50008401B350F8C2947F807E00120F6B753C03
:100D6000FF753D0E753E547B007A00792712085CB2
:100D7000120ECB120F62753CFF753D0E753E6585F8
:100D8000083F850940858C41858A427B007A00793D
:100D90002712085C120ECB7F887E13120EFDE4F53D
:060DA00008F509020D0434
:100F7D00758901D2D4D2A9A881868C08868AC2D45B
:050F8D00D2AFD28C225E
:0C0FB800D2D4788176FC087648C2D4229E
:100F9200C28DC28CD2D47881868C08868AB297C2DE
:040FA200D4D28C22F7
:100DB200020CE0E493A3F8E493A34003F68001F26B
:100DC20008DFF48029E493A3F85407240CC8C33342
:100DD200C4540F4420C8834004F456800146F6DF11
:100DE200E4800B0102040810204080900FCEE47EC4
:100DF200019360BCA3FF543F30E509541FFEE49306
:100E0200A360010ECF54C025E060A840B8E493A3CC
:100E1200FAE493A3F8E493A3C8C582C8CAC583CAF7
:100E2200F0A3C8C582C8CAC583CADFE9DEE780BEAF
:010FD500001B
:100B5C00E709F608DFFA8046E709F208DFFA803E7B
:100B6C0088828C83E709F0A3DFFA8032E309F60868
:100B7C00DFFA8078E309F208DFFA807088828C83D0
:100B8C00E309F0A3DFFA806489828A83E0A3F60884
:100B9C00DFFA805889828A83E0A3F208DFFA804C5E
:100BAC0080D280FA80C680D4806980F28033801035
:100BBC0080A680EA809A80A880DA80E280CA80339E
:100BCC0089828A83ECFAE493A3C8C582C8CCC58316
:100BDC00CCF0A3C8C582C8CCC583CCDFE9DEE780E6
:100BEC000D89828A83E493A3F608DFF9ECFAA9F065
:100BFC00EDFB2289828A83ECFAE0A3C8C582C8CCBB
:100C0C00C583CCF0A3C8C582C8CCC583CCDFEADED3
:100C1C00E880DB89828A83E493A3F208DFF980CC35
:100C2C0088F0EF60010E4E60C388F0ED2402B4042E
:100C3C000050B9F582EB2402B4040050AF232345D5
:060C4C008223900BAC7343
:100C5200BB010689828A83E0225002E722BBFE02A0
:090C6200E32289828A83E49322D3
:10080000E548243CF8E60548227839300702783C70
:10081000E475F001120CAA020C522000EB7F2ED2DC
:10082000008018EF540F2490D43440D4FF30040BD0
:10083000EF24BFB41A0050032461FFE5496002159C
:1008400049054CE54C7002054B30070D7839E475CD
:10085000F001120CAAEF020C98020F1D7403D207CC
:100860008003E4C207F5488B398A3A893BE4F549AD
:10087000F54BF54CE54960077F2012083B80F57584
:100880004AFFC201C200C202C203C205C206C208B8
:10089000120809FF700D3007057F0012084CAF4C9D
:1008A000AE4B22B4255FC2D5C204120809FF24D082
:1008B000B40A00501A75F00A784930D50508B6FF19
:1008C0000106C6A426F620D5047002D20380D924DE
:1008D000CFB41A00EF5004C2E5D204020A4CD20190
:1008E00080C6D20080C0D20280BCD2D580BAD205E8
:1008F00080B47F2012083B2002077401B5490040F4
:10090000F1120800FF12083B020874D208D20680D8
:1009100095120800FB120800FA120800F94A4B7001
:1009200006791D7A0B7BFF20022EE549602A7E00A6
:100930008E82758300120C6B60060EEE654A70F0B5
:10094000C2D5EBC0E0EAC0E0E9C0E0EE120A93D005
:10095000E0F9D0E0FAD0E0FB120C52FF60AAEBC045
:10096000E0EAC0E0E9C0E012083BD0E02401F9D0A1
:10097000E03400FAD0E0FBE54A0460DCD54AD980D7
:10098000877BFF7A0A798FD202809C791080027966
:1009900008C206C2088008D2D5790A8004790AC242
:1009A000D5E54A047002F54AE4FAFDFEFF1208009C
:1009B000FC7B08200113120800FD7B1030000A1296
:1009C0000800FE120800FF7B20EC3382D592D55040
:1009D00013C3E43000069FFFE49EFEE42001039D64
:1009E000FDE49CFCE4CBF8C201EC700CCFCECDCC86
:1009F000E824F8F870F38017C3EF33FFEE33FEED11
:100A000033FDEC33FCEB33FB994002FB0FD8E9EBF1
:100A1000300105F8D0E0C448B201C0E00AEC4D4E08
:100A20004F78207B0070C2EAB54A0040BCC0E0129B
:100A30000A95D0F0D0E0200104C4C0E0C4B201C0E7
:100A4000F0120824D0F0D5F0EB020874120CBA09A9
:100A50001153098B5808E24C08DE42098F4F099761
:0F0A60004409974908F743099D550981460981C3
:100A6F00450981470B3D5008E62D08EA2E090D2B4D
:100A7F0008EE23090B200B262A08A64800000905BB
:100A8F003F3F3F00790AA2D5200314300509B91062
:100A9F00020404B9080104A2D52006025001042063
:100AAF0002689202B549005034C0E07F203003192C
:100ABF007F30A20272067205500F120AECC202C2F8
:100ACF0006C205C2087F30800F300503E9C0E0126F
:100ADF00083B300503D0E0F9D0E0B549CC3005171D
:100AEF007F30B9100C12083B7F583004077F788095
:100AFF0003B9080312083B3002057F2D02083B7F24
:100B0F00202008F87F2B2006F322920280CF286E38
:100B1F00756C6C2900D2011208003001F8C20178FF
:100B2F004930D50108F60208A62D5043495812083E
:100B3F00002403B405004001E4900B389312082CF5
:0D0B4F00743A12082CD20375490402098B78
:100C6B00BB010CE58229F582E5833AF583E022503E
:100C7B0006E92582F8E622BBFE06E92582F8E22288
:0D0C8B00E58229F582E5833AF583E49322A2
:100C9800BB010689828A83F0225002F722BBFE013B
:020CA800F32235
:100CAA00FAE6FB0808E6F925F0F618E6CA3AF6224B
:100CBA00D083D082F8E4937012740193700DA3A3C9
:100CCA0093F8740193F5828883E4737402936860DD
:060CDA00EFA3A3A380DFDD
:100F1D00EFB40A07740D120F28740A309811A899AE
:100F2D00B8130CC2983098FDA899C298B811F63034
:070F3D0099FDC299F599220C
:00000001FF
